:020000040800F2
:10000000000001203D1000088D1000088D10000830
:100010008D1000088D1000088D10000800000000F1
:100020000000000000000000000000008D1000082B
:100030008D100008000000008D1000088D100008D1
:10004000000000008D1000088D1000088D100008C1
:100050008D1000088D1000088D1000088D1000080C
:100060008D1000088D1000088D10000800000000A1
:100070000000000000000000000000000000000080
:1000800000000000000000008D10000800000000CB
:100090000000000000000000000000008D100008BB
:1000A0008D1000088D1000088D1000088D100008BC
:1000B0001D1000088D100008000000008D100008C1
:1000C0008D1000088D1000088D1000088D1000089C
:1000D0008D1000080000000000000000000000007B
:1000E0008D1000088D1000088D1000080000000021
:1000F0000000000000000000000000000000000000
:10010000000000008D100008000000008D100008A5
:1001100000000000000000000000000000000000DF
:1001200000000000000000000000000000000000CF
:1001300000000000000000000000000000000000BF
:100140000000000000000000000000008D1000080A
:10015000000000000000000000000000000000009F
:100160008D1000088D100008000000000000000045
:10017000000000000000000000000000000000007F
:10018000000000008D1000080000000000000000CA
:040190008D100008C6
:1001940010B5054C237833B9044B13B10448AFF3BD
:1001A40000800123237010BD7C00002000000000AB
:1001B400D810000808B5034B1BB103490348AFF33B
:1001C400008008BD0000000080000020D810000856
:1001D4004FF0FF0C1CEAD0521EBF1CEAD15392EA26
:1001E4000C0F93EA0C0F6FD01A4480EA010C400202
:1001F40018BF5FEA41211ED04FF0006343EA50105C
:1002040043EA5111A0FB01310CF00040B1F5000F9D
:100214003EBF490041EAD3715B0040EA010062F14C
:100224007F02FD2A1DD8B3F1004F40EBC25008BF36
:1002340020F00100704790F0000F0CF0004C08BF54
:1002440049024CEA502040EA51207F3AC2BFD2F121
:10025400FF0340EAC250704740F400004FF000032F
:10026400013A5DDC12F1190FDCBF00F00040704769
:10027400C2F10002410021FA02F1C2F1200200FAA7
:1002840002FC5FEA310040F1000053EA4C0308BF6E
:1002940020EADC70704792F0000F00F0004C02BFBF
:1002A400400010F4000F013AF9D040EA0C0093F03A
:1002B400000F01F0004C02BF490011F4000F013B94
:1002C400F9D041EA0C018FE70CEAD15392EA0C0F02
:1002D40018BF93EA0C0F0AD030F0004C18BF31F06D
:1002E400004CD8D180EA010000F00040704790F043
:1002F400000F17BF90F0004F084691F0000F91F0E7
:10030400004F14D092EA0C0F01D142020FD193EAAC
:100314000C0F03D14B0218BF084608D180EA010034
:1003240000F0004040F0FE4040F40000704740F010
:10033400FE4040F44000704780F0004002E000BFFF
:1003440081F0004142001FBF5FEA410392EA030FBC
:100354007FEA226C7FEA236C6AD04FEA1262D2EB06
:100364001363C1BFD218414048404140B8BF5B420B
:10037400192B88BF704710F0004F40F4000020F0A4
:100384007F4018BF404211F0004F41F4000121F0BA
:100394007F4118BF494292EA030F3FD0A2F1010204
:1003A40041FA03FC10EB0C00C3F1200301FA03F142
:1003B40000F0004302D5494260EB4000B0F5000F65
:1003C40013D3B0F1807F06D340084FEA310102F124
:1003D4000102FE2A51D2B1F1004F40EBC25008BFD6
:1003E40020F0010040EA03007047490040EB0000A0
:1003F400013A28BFB0F5000FEDD2B0FA80FCACF1A1
:10040400080CB2EB0C0200FA0CF0AABF00EBC250CD
:1004140052421843BCBFD0401843704792F0000FBB
:1004240081F4000106BF80F400000132013BB5E70E
:100434004FEA41037FEA226C18BF7FEA236C21D084
:1004440092EA030F04D092F0000F08BF08467047E9
:1004540090EA010F1CBF0020704712F07F4F04D1B7
:10046400400028BF40F00040704712F100723CBFCA
:1004740000F50000704700F0004343F0FE4040F4F4
:10048400000070477FEA226216BF08467FEA2363B2
:100494000146420206BF5FEA412390EA010F40F49D
:1004A400800070474FF0000304E000BF10F00043E9
:1004B40048BF40425FEA000C08BF704743F09643D0
:1004C40001464FF000001CE050EA010208BF7047EB
:1004D4004FF000030AE000BF50EA010208BF704772
:1004E40011F0004302D5404261EB41015FEA010C87
:1004F40002BF84460146002043F0B64308BFA3F17F
:100504008053A3F50003BCFA8CF2083AA3EBC25360
:1005140010DB01FA02FC634400FA02FCC2F120027F
:10052400BCF1004F20FA02F243EB020008BF20F0B6
:100534000100704702F1200201FA02FCC2F120021C
:1005440050EA4C0021FA02F243EB020008BF20EA11
:10055400DC7070474FF0FF3C06E000BF4FF0010C29
:1005640002E000BF4FF0010C4DF804CD4FEA400209
:100574004FEA41037FEA226C18BF7FEA236C11D053
:1005840001B052EA530C18BF90EA010F58BFB2EB06
:10059400030088BFC81738BF6FEAE17018BF40F086
:1005A400010070477FEA226C02D15FEA402C05D13A
:1005B4007FEA236CE4D15FEA412CE1D05DF8040BBF
:1005C400704700BF844608466146FFE70FB5FFF752
:1005D400C9FF002848BF10F1000F0FBD4DF808ED0A
:1005E400FFF7F4FF0CBF012000205DF808FB00BFFB
:1005F4004DF808EDFFF7EAFF34BF012000205DF855
:1006040008FB00BF4DF808EDFFF7E0FF94BF0120A1
:1006140000205DF808FB00BF4DF808EDFFF7D2FF9E
:1006240094BF012000205DF808FB00BF4DF808EDE1
:10063400FFF7C8FF34BF012000205DF808FB00BFAE
:100644004FEA4002B2F1FE4F0FD34FF09E03B3EBDB
:1006540012620DD94FEA002343F0004310F0004F1B
:1006640023FA02F018BF404270474FF00000704771
:1006740012F1610F01D1420205D110F0004008BF10
:100684006FF0004070474FF00000704780B483B0B3
:1006940000AF0346FB71074B1B68FA79012101FA8D
:1006A40002F21146034A0B43136000BF0C37BD46E8
:1006B40080BC70473038024090B482B000AF04462A
:1006C400084611461A462346FB710346BB710B4686
:1006D4007B7113463B71FA79564913469B001344C8
:1006E400DB000B441B681968BB795B00032202FA28
:1006F40003F3DB431C46FA794E4813469B0013442C
:10070400DB0003441B6801EA04021A60FA794949D0
:1007140013469B001344DB000B441B6819687A7969
:10072400BB795B0002FA03F31C46FA79414813468D
:100734009B001344DB0003441B6841EA04021A6073
:10074400FA793C4913469B001344DB000B44043301
:100754001B681968BB79012202FA03F3DB431C46C8
:10076400FA79344813469B001344DB0003440433F2
:100774001B6801EA04021A60FA792E4913469B00A9
:100784001344DB000B4404331B6819683B7903F002
:100794000102BB7902FA03F31C46FA792548134691
:1007A4009B001344DB00034404331B6841EA040246
:1007B4001A60FA791F4913469B001344DB000B446B
:1007C4000C331B681968BB795B00032202FA03F33C
:1007D400DB431C46FA79174813469B001344DB009D
:1007E40003440C331B6801EA04021A60FA791149C4
:1007F40013469B001344DB000B440C331B6819683D
:100804003B795B1003F00302BB795B0002FA03F34C
:100814001C46FA79074813469B001344DB00034443
:100824000C331B6841EA04021A6000BF0837BD4656
:1008340090BC70470000002090B484B000AF034621
:10084400FB710B46BB7113467B71FA792C49134635
:100854009B001344DB000B441B681B68BA795200ED
:10086400032101FA02F21A40BB795B0022FA03F376
:10087400012B3DD17B79002B1BD0FA7920491346FB
:100884009B001344DB000B4414331B681968BB79C9
:10089400012202FA03F31C46FA79194813469B0015
:1008A4001344DB00034414331B6841EA04021A6056
:1008B4001BE0FA79124913469B001344DB000B44F6
:1008C40014331B681968BB79012202FA03F3DB4372
:1008D4001C46FA790A4813469B001344DB00034480
:1008E40014331B6801EA04021A600023FB7301E05D
:1008F4000123FB73FB7B18461037BD4690BC704741
:100904000000002090B585B000AF7860474B1B68AD
:1009140079681846FFF714FD0346FB60444B1B68D7
:100924001946F868FFF754FC0346BB60414B1B684B
:100934004FF07C511846FFF74BFC03461A463E4BDA
:100944001B6819461046FFF743FC03461C463B4B05
:100954001B68F9681846FFF7F5FC0346194620465C
:10096400FFF736FC03461A46354B1B6819461046FA
:10097400FFF7E8FC03461A46314B1A60304B1B68FC
:10098400304A126811461846FFF750FE0346002B02
:1009940004D02C4B1B682A4A13600EE0284B1B68BA
:1009A400284A126811461846FFF722FE0346002B18
:1009B40003D0244B1B68224A1360214B1B68B9687F
:1009C4001846FFF7BFFC03461A461F4B1A601E4B1E
:1009D4001B681E4A126811461846FFF727FE034695
:1009E400002B03D0184B1A4A1A600EE0164B1B68F2
:1009F400164A126811461846FFF704FE0346002BF8
:100A040003D0114B4FF000021A600C4AFB681360CC
:100A1400104A7B6813600C4B1B680F4A13600A4B27
:100A24001B6818461437BD4690BD00BF5000002017
:100A34005C00002060000020680000209C00002072
:100A44009800002058000020AC0000206400002022
:100A540048E13A3FA0000020A800002080B483B001
:100A640000AF0346FB71FB7903F01F02064997F9B7
:100A740007305B09012000FA02F241F8232000BF8D
:100A84000C37BD4680BC704700E100E080B400AF85
:100A9400104B1B6C0F4A43F0010313644FF0804367
:100AA40040F23F621A854FF080436422DA624FF0CD
:100AB400804300225A624FF080431B889BB24FF060
:100AC400804243F001039BB2138000BFBD4680BC4B
:100AD400704700BF0038024080B500AF4FF080433C
:100AE4009B899BB24FF0804243F001039BB29381F8
:100AF4001C20FFF7B3FF00BF80BD80B500AF00F03E
:100B040077F900BF80BD000080B400AF044B1B68C0
:100B1400034A43F48053136000BFBD4680BC704752
:100B24004438024080B483B000AF0346FB710B46E7
:100B3400BB7113467B71164B1B68154A43F4407313
:100B44001360134B1B68FA7992001146104A0B4349
:100B540013600F4B1B68BA79520011460C4A0B43C1
:100B640013600B4B1A687B79094913430B60084BDC
:100B74001B68074A43F018031360054B1B68044ABB
:100B840043F04003136000BF0C37BD4680BC704780
:100B94000030014080B483B000AF0346FB710D4BBD
:100BA4001B6803F00203002B0DD00B4AFB79136082
:100BB40000BF084B1B6803F08003002BF9D1064BE0
:100BC4001B68DBB200E0FF2318460C37BD4680BC2F
:100BD400704700BF083001400C30014080B582B03E
:100BE40000AF0346FB710021802000F004F800BF31
:100BF4000837BD4680BD80B582B000AF03460A46C3
:100C0400FB711346BB71FB7963F07F03DBB21846BB
:100C1400FFF7C0FFBB791846FFF7BCFF00BF0837DA
:100C2400BD4680BD80B582B000AF03463960FB711C
:100C3400FB7903F07F03DBB21846FFF7ABFF00201C
:100C4400FFF7A8FF03461A463B681A7000BF08372F
:100C5400BD4680BD80B400AF044B1B68034A43F417
:100C64000033136000BFBD4680BC7047403802406B
:100C740080B400AF154B1B68144A43F4E06313605F
:100C8400134B1B68124A43F400531360104B1B6848
:100C94000F4A43F0080313600D4B1B680C4A23F4FE
:100CA400004313600A4B1B68094A23F48053136002
:100CB400084B1B68074A23F440531360064B40F269
:100CC40083621A6000BFBD4680BC704720000240AA
:100CD4000C440040104400400844004080B483B0F9
:100CE40000AF78600CE07B681A780A4B1A607B6866
:100CF40001337B60084B1B6803F04003002BF2D1E7
:100D04007B681B78002BF5D100BF00BF0C37BD46B4
:100D140080BC7047044400400044004080B500AFEC
:100D2400012200210120FFF787FD0020FFF756FF75
:100D3400002200210120FFF77FFD2B4B4FF0000222
:100D44001A60012200210120FFF776FD27490120C6
:100D5400FFF768FF002200210120FFF76DFD234B00
:100D64001B785BB2002B0ADA1F4B1B684FF07C51D7
:100D74001846FFF7E7FA03461A461B4B1A601B4B4B
:100D84001B7803F04003002B0AD0174B1B684FF06D
:100D94007A511846FFF7D6FA03461A46124B1A60E0
:100DA400012200210120FFF747FD10490220FFF72F
:100DB40039FF002200210120FFF73EFD0B4B1B7879
:100DC4005BB21846FFF772FB0246074B1B681946D5
:100DD4001046FFF7B7FA03461A46034B1A60024B54
:100DE4001B68184680BD00BFB4000020B00000207E
:100DF40080B582B000AF154B1B68002B11D0144B8B
:100E04001B68002B0DD1FFF789FF78607868FFF726
:100E140079FD38600F49386800F042F80D48FFF753
:100E24005DFF0B4B1B680133094A1360084B1B68B9
:100E3400094A126893FBF2F102FB01F29B1A044A7D
:100E4400136000BF0837BD4680BD00BF6C000020A2
:100E5400B8000020740000207000002080B400AFAF
:100E6400034B01221A6000BFBD4680BC704700BF1F
:100E74006C00002080B483B000AF78607B68064AC1
:100E840082FB03125211DB17D31A044A136000BF0A
:100E94000C37BD4680BC70471F85EB5170000020A5
:100EA40080B584B000AF7860396031497868FFF765
:100EB4008FF903461846FFF7C3FB0346FB60FA6845
:100EC4002C4B83FB02139910D317C91A0B469B00B2
:100ED4000B445B00D11ACAB23B6803333032D2B23E
:100EE4001A70FB68234A82FB03129210DB17D31A91
:100EF400FB60FA681F4B83FB02139910D317C91ABE
:100F04000B469B000B445B00D11ACAB23B68023308
:100F14003032D2B21A703B6801332E221A70FB6849
:100F2400144A82FB03129210DB17D31AFB60FA688F
:100F3400104B83FB02139910D317C91A0B469B005D
:100F44000B445B00D11ACBB23033DAB23B681A706F
:100F54003B6804330D221A703B6805330A221A7069
:100F64003B68063300221A7000BF1037BD4680BDAF
:100F74000000C8426766666680B400AF00BFBD4625
:100F840080BC704780B500AF0020FFF77FFB0023D3
:100F9400022202210020FFF78FFBFFF75BFEFFF721
:100FA40067FE0120FFF772FB0023012200210120CC
:100FB400FFF782FB0020FFF769FB164B1B68154AFD
:100FC40043F0AA4343F4A003136000230222052143
:100FD4000020FFF771FB0023022206210020FFF707
:100FE4006BFB0023022207210020FFF765FBFFF7BC
:100FF4008BFD012200210120FFF794FDFFF746FD40
:10100400FFF76AFD4FF4FA70FFF734FFFFF726FF8E
:10101400FEE700BF2000024080B500AF4FF08043E0
:101024001B8A9BB24FF0804223F001039BB21382D0
:10103400FFF763FD00BF80BD0D4885460D480E498E
:101044000E4A002302E0D458C4500433C4188C421E
:10105400F9D30B4A0B4C002301E013600432A24283
:10106400FBD3FFF789FF00F011F8FFF78BFFFEE7D2
:1010740000000120000000207C000020F81000087F
:101084007C000020BC000020FEE7000070B50D4D80
:101094000D4C641BA4100026A64209D10B4D0C4C28
:1010A40000F018F8641BA4100026A64205D170BDF8
:1010B40055F8043B98470136EEE755F8043B98474A
:1010C4000136F2E7F0100008F0100008F0100008F4
:1010D400F4100008F8B500BFF8BC08BC9E46704781
:0C10E400F8B500BFF8BC08BC9E46704781
:0410F000B90100083A
:0410F400950100085A
:1010F8000000024004000240080002400C000240C8
:101108001000024014000240180002401C00024077
:10111800200002402400024000040240040402406F
:10112800080402400C040240100402401404024067
:10113800180402401C040240200402402404024017
:101148000000F041000020C100002041CDCCCC3D82
:101158000AD7233C000020410000003F01000000A6
:0C11680001000000202E20200D0A0000D5
:040000050800103DA2
:00000001FF
